{
  "_format": "hh-sol-artifact-1",
  "contractName": "Users",
  "sourceName": "contracts/User.sol",
  "abi": [
    {
      "inputs": [
        {
          "internalType": "string",
          "name": "aadhaarNumber",
          "type": "string"
        }
      ],
      "name": "checkForValidSignUp",
      "outputs": [
        {
          "internalType": "bool",
          "name": "",
          "type": "bool"
        }
      ],
      "stateMutability": "view",
      "type": "function"
    },
    {
      "inputs": [
        {
          "internalType": "string",
          "name": "aadhaarNumber",
          "type": "string"
        }
      ],
      "name": "getMap",
      "outputs": [
        {
          "internalType": "string",
          "name": "",
          "type": "string"
        }
      ],
      "stateMutability": "view",
      "type": "function"
    },
    {
      "inputs": [],
      "name": "getUsers",
      "outputs": [
        {
          "components": [
            {
              "internalType": "string",
              "name": "firstname",
              "type": "string"
            },
            {
              "internalType": "string",
              "name": "lastname",
              "type": "string"
            },
            {
              "internalType": "uint256",
              "name": "age",
              "type": "uint256"
            },
            {
              "internalType": "string",
              "name": "houseaddress",
              "type": "string"
            },
            {
              "internalType": "string",
              "name": "gender",
              "type": "string"
            },
            {
              "internalType": "string",
              "name": "email",
              "type": "string"
            },
            {
              "internalType": "string",
              "name": "aadhaarNumber",
              "type": "string"
            },
            {
              "internalType": "string",
              "name": "imageUrl",
              "type": "string"
            },
            {
              "internalType": "string",
              "name": "voterConstituency",
              "type": "string"
            },
            {
              "internalType": "address",
              "name": "userAddress",
              "type": "address"
            }
          ],
          "internalType": "struct Users.User[]",
          "name": "",
          "type": "tuple[]"
        }
      ],
      "stateMutability": "view",
      "type": "function"
    },
    {
      "inputs": [
        {
          "internalType": "string",
          "name": "aadhaarNumber",
          "type": "string"
        },
        {
          "internalType": "string",
          "name": "password",
          "type": "string"
        }
      ],
      "name": "login",
      "outputs": [
        {
          "components": [
            {
              "internalType": "string",
              "name": "firstname",
              "type": "string"
            },
            {
              "internalType": "string",
              "name": "lastname",
              "type": "string"
            },
            {
              "internalType": "uint256",
              "name": "age",
              "type": "uint256"
            },
            {
              "internalType": "string",
              "name": "houseaddress",
              "type": "string"
            },
            {
              "internalType": "string",
              "name": "gender",
              "type": "string"
            },
            {
              "internalType": "string",
              "name": "email",
              "type": "string"
            },
            {
              "internalType": "string",
              "name": "aadhaarNumber",
              "type": "string"
            },
            {
              "internalType": "string",
              "name": "imageUrl",
              "type": "string"
            },
            {
              "internalType": "string",
              "name": "voterConstituency",
              "type": "string"
            },
            {
              "internalType": "address",
              "name": "userAddress",
              "type": "address"
            }
          ],
          "internalType": "struct Users.User",
          "name": "",
          "type": "tuple"
        }
      ],
      "stateMutability": "view",
      "type": "function"
    },
    {
      "inputs": [
        {
          "internalType": "string",
          "name": "firstname",
          "type": "string"
        },
        {
          "internalType": "string",
          "name": "lastname",
          "type": "string"
        },
        {
          "internalType": "uint256",
          "name": "age",
          "type": "uint256"
        },
        {
          "internalType": "string",
          "name": "password",
          "type": "string"
        },
        {
          "internalType": "string",
          "name": "houseaddress",
          "type": "string"
        },
        {
          "internalType": "string",
          "name": "gender",
          "type": "string"
        },
        {
          "internalType": "string",
          "name": "email",
          "type": "string"
        },
        {
          "internalType": "string",
          "name": "aadhaarNumber",
          "type": "string"
        },
        {
          "internalType": "string",
          "name": "imageUrl",
          "type": "string"
        },
        {
          "internalType": "string",
          "name": "voterConstituency",
          "type": "string"
        }
      ],
      "name": "signUp",
      "outputs": [],
      "stateMutability": "nonpayable",
      "type": "function"
    }
  ],
  "bytecode": "0x608060405234801561001057600080fd5b50611ec5806100206000396000f3fe608060405234801561001057600080fd5b50600436106100565760003560e01c8062ce8e3e1461005b578063318daf1c146100795780633dc754fc146100a957806358467dbc146100c5578063d409187b146100f5575b600080fd5b610063610125565b60405161007091906112fe565b60405180910390f35b610093600480360381019061008e9190611469565b610675565b6040516100a091906114fc565b60405180910390f35b6100c360048036038101906100be919061154a565b610725565b005b6100df60048036038101906100da9190611725565b61093f565b6040516100ec91906118a8565b60405180910390f35b61010f600480360381019061010a9190611469565b610f5a565b60405161011c91906118e5565b60405180910390f35b60606001805480602002602001604051908101604052809291908181526020016000905b8282101561066c57838290600052602060002090600a02016040518061014001604052908160008201805461017d9061192f565b80601f01602080910402602001604051908101604052809291908181526020018280546101a99061192f565b80156101f65780601f106101cb576101008083540402835291602001916101f6565b820191906000526020600020905b8154815290600101906020018083116101d957829003601f168201915b5050505050815260200160018201805461020f9061192f565b80601f016020809104026020016040519081016040528092919081815260200182805461023b9061192f565b80156102885780601f1061025d57610100808354040283529160200191610288565b820191906000526020600020905b81548152906001019060200180831161026b57829003601f168201915b50505050508152602001600282015481526020016003820180546102ab9061192f565b80601f01602080910402602001604051908101604052809291908181526020018280546102d79061192f565b80156103245780601f106102f957610100808354040283529160200191610324565b820191906000526020600020905b81548152906001019060200180831161030757829003601f168201915b5050505050815260200160048201805461033d9061192f565b80601f01602080910402602001604051908101604052809291908181526020018280546103699061192f565b80156103b65780601f1061038b576101008083540402835291602001916103b6565b820191906000526020600020905b81548152906001019060200180831161039957829003601f168201915b505050505081526020016005820180546103cf9061192f565b80601f01602080910402602001604051908101604052809291908181526020018280546103fb9061192f565b80156104485780601f1061041d57610100808354040283529160200191610448565b820191906000526020600020905b81548152906001019060200180831161042b57829003601f168201915b505050505081526020016006820180546104619061192f565b80601f016020809104026020016040519081016040528092919081815260200182805461048d9061192f565b80156104da5780601f106104af576101008083540402835291602001916104da565b820191906000526020600020905b8154815290600101906020018083116104bd57829003601f168201915b505050505081526020016007820180546104f39061192f565b80601f016020809104026020016040519081016040528092919081815260200182805461051f9061192f565b801561056c5780601f106105415761010080835404028352916020019161056c565b820191906000526020600020905b81548152906001019060200180831161054f57829003601f168201915b505050505081526020016008820180546105859061192f565b80601f01602080910402602001604051908101604052809291908181526020018280546105b19061192f565b80156105fe5780601f106105d3576101008083540402835291602001916105fe565b820191906000526020600020905b8154815290600101906020018083116105e157829003601f168201915b505050505081526020016009820160009054906101000a900473ffffffffffffffffffffffffffffffffffffffff1673ffffffffffffffffffffffffffffffffffffffff1673ffffffffffffffffffffffffffffffffffffffff168152505081526020019060010190610149565b50505050905090565b6060600082604051610687919061199c565b908152602001604051809103902080546106a09061192f565b80601f01602080910402602001604051908101604052809291908181526020018280546106cc9061192f565b80156107195780601f106106ee57610100808354040283529160200191610719565b820191906000526020600020905b8154815290600101906020018083116106fc57829003601f168201915b50505050509050919050565b61072e83610f5a565b15610775576000610774576040517f08c379a000000000000000000000000000000000000000000000000000000000815260040161076b906119ff565b60405180910390fd5b5b60006040518061014001604052808c81526020018b81526020018a81526020018881526020018781526020018681526020018581526020018481526020018381526020013373ffffffffffffffffffffffffffffffffffffffff16815250905060018190806001815401808255809150506001900390600052602060002090600a020160009091909190915060008201518160000190816108169190611bcb565b50602082015181600101908161082c9190611bcb565b5060408201518160020155606082015181600301908161084c9190611bcb565b5060808201518160040190816108629190611bcb565b5060a08201518160050190816108789190611bcb565b5060c082015181600601908161088e9190611bcb565b5060e08201518160070190816108a49190611bcb565b506101008201518160080190816108bb9190611bcb565b506101208201518160090160006101000a81548173ffffffffffffffffffffffffffffffffffffffff021916908373ffffffffffffffffffffffffffffffffffffffff160217905550505087600085604051610917919061199c565b908152602001604051809103902090816109319190611bcb565b505050505050505050505050565b610947610fde565b818051906020012060008460405161095f919061199c565b908152602001604051809103902060405161097a9190611d40565b604051809103902003610f195760005b600180549050811015610f17578380519060200120600182815481106109b3576109b2611d57565b5b90600052602060002090600a02016006016040516109d19190611d40565b604051809103902003610f0457600181815481106109f2576109f1611d57565b5b90600052602060002090600a020160405180610140016040529081600082018054610a1c9061192f565b80601f0160208091040260200160405190810160405280929190818152602001828054610a489061192f565b8015610a955780601f10610a6a57610100808354040283529160200191610a95565b820191906000526020600020905b815481529060010190602001808311610a7857829003601f168201915b50505050508152602001600182018054610aae9061192f565b80601f0160208091040260200160405190810160405280929190818152602001828054610ada9061192f565b8015610b275780601f10610afc57610100808354040283529160200191610b27565b820191906000526020600020905b815481529060010190602001808311610b0a57829003601f168201915b5050505050815260200160028201548152602001600382018054610b4a9061192f565b80601f0160208091040260200160405190810160405280929190818152602001828054610b769061192f565b8015610bc35780601f10610b9857610100808354040283529160200191610bc3565b820191906000526020600020905b815481529060010190602001808311610ba657829003601f168201915b50505050508152602001600482018054610bdc9061192f565b80601f0160208091040260200160405190810160405280929190818152602001828054610c089061192f565b8015610c555780601f10610c2a57610100808354040283529160200191610c55565b820191906000526020600020905b815481529060010190602001808311610c3857829003601f168201915b50505050508152602001600582018054610c6e9061192f565b80601f0160208091040260200160405190810160405280929190818152602001828054610c9a9061192f565b8015610ce75780601f10610cbc57610100808354040283529160200191610ce7565b820191906000526020600020905b815481529060010190602001808311610cca57829003601f168201915b50505050508152602001600682018054610d009061192f565b80601f0160208091040260200160405190810160405280929190818152602001828054610d2c9061192f565b8015610d795780601f10610d4e57610100808354040283529160200191610d79565b820191906000526020600020905b815481529060010190602001808311610d5c57829003601f168201915b50505050508152602001600782018054610d929061192f565b80601f0160208091040260200160405190810160405280929190818152602001828054610dbe9061192f565b8015610e0b5780601f10610de057610100808354040283529160200191610e0b565b820191906000526020600020905b815481529060010190602001808311610dee57829003601f168201915b50505050508152602001600882018054610e249061192f565b80601f0160208091040260200160405190810160405280929190818152602001828054610e509061192f565b8015610e9d5780601f10610e7257610100808354040283529160200191610e9d565b820191906000526020600020905b815481529060010190602001808311610e8057829003601f168201915b505050505081526020016009820160009054906101000a900473ffffffffffffffffffffffffffffffffffffffff1673ffffffffffffffffffffffffffffffffffffffff1673ffffffffffffffffffffffffffffffffffffffff1681525050915050610f54565b8080610f0f90611db5565b91505061098a565b505b6040517f08c379a0000000000000000000000000000000000000000000000000000000008152600401610f4b90611e6f565b60405180910390fd5b92915050565b600080600090505b600180549050811015610fd357828051906020012060018281548110610f8b57610f8a611d57565b5b90600052602060002090600a0201600601604051610fa99190611d40565b604051809103902003610fc0576001915050610fd9565b8080610fcb90611db5565b915050610f62565b50600090505b919050565b604051806101400160405280606081526020016060815260200160008152602001606081526020016060815260200160608152602001606081526020016060815260200160608152602001600073ffffffffffffffffffffffffffffffffffffffff1681525090565b600081519050919050565b600082825260208201905092915050565b6000819050602082019050919050565b600081519050919050565b600082825260208201905092915050565b60005b838110156110ad578082015181840152602081019050611092565b60008484015250505050565b6000601f19601f8301169050919050565b60006110d582611073565b6110df818561107e565b93506110ef81856020860161108f565b6110f8816110b9565b840191505092915050565b6000819050919050565b61111681611103565b82525050565b600073ffffffffffffffffffffffffffffffffffffffff82169050919050565b60006111478261111c565b9050919050565b6111578161113c565b82525050565b600061014083016000830151848203600086015261117b82826110ca565b9150506020830151848203602086015261119582826110ca565b91505060408301516111aa604086018261110d565b50606083015184820360608601526111c282826110ca565b915050608083015184820360808601526111dc82826110ca565b91505060a083015184820360a08601526111f682826110ca565b91505060c083015184820360c086015261121082826110ca565b91505060e083015184820360e086015261122a82826110ca565b91505061010083015184820361010086015261124682826110ca565b91505061012083015161125d61012086018261114e565b508091505092915050565b6000611274838361115d565b905092915050565b6000602082019050919050565b600061129482611047565b61129e8185611052565b9350836020820285016112b085611063565b8060005b858110156112ec57848403895281516112cd8582611268565b94506112d88361127c565b925060208a019950506001810190506112b4565b50829750879550505050505092915050565b600060208201905081810360008301526113188184611289565b905092915050565b6000604051905090565b600080fd5b600080fd5b600080fd5b600080fd5b7f4e487b7100000000000000000000000000000000000000000000000000000000600052604160045260246000fd5b611376826110b9565b810181811067ffffffffffffffff821117156113955761139461133e565b5b80604052505050565b60006113a8611320565b90506113b4828261136d565b919050565b600067ffffffffffffffff8211156113d4576113d361133e565b5b6113dd826110b9565b9050602081019050919050565b82818337600083830152505050565b600061140c611407846113b9565b61139e565b90508281526020810184848401111561142857611427611339565b5b6114338482856113ea565b509392505050565b600082601f8301126114505761144f611334565b5b81356114608482602086016113f9565b91505092915050565b60006020828403121561147f5761147e61132a565b5b600082013567ffffffffffffffff81111561149d5761149c61132f565b5b6114a98482850161143b565b91505092915050565b600082825260208201905092915050565b60006114ce82611073565b6114d881856114b2565b93506114e881856020860161108f565b6114f1816110b9565b840191505092915050565b6000602082019050818103600083015261151681846114c3565b905092915050565b61152781611103565b811461153257600080fd5b50565b6000813590506115448161151e565b92915050565b6000806000806000806000806000806101408b8d03121561156e5761156d61132a565b5b60008b013567ffffffffffffffff81111561158c5761158b61132f565b5b6115988d828e0161143b565b9a505060208b013567ffffffffffffffff8111156115b9576115b861132f565b5b6115c58d828e0161143b565b99505060406115d68d828e01611535565b98505060608b013567ffffffffffffffff8111156115f7576115f661132f565b5b6116038d828e0161143b565b97505060808b013567ffffffffffffffff8111156116245761162361132f565b5b6116308d828e0161143b565b96505060a08b013567ffffffffffffffff8111156116515761165061132f565b5b61165d8d828e0161143b565b95505060c08b013567ffffffffffffffff81111561167e5761167d61132f565b5b61168a8d828e0161143b565b94505060e08b013567ffffffffffffffff8111156116ab576116aa61132f565b5b6116b78d828e0161143b565b9350506101008b013567ffffffffffffffff8111156116d9576116d861132f565b5b6116e58d828e0161143b565b9250506101208b013567ffffffffffffffff8111156117075761170661132f565b5b6117138d828e0161143b565b9150509295989b9194979a5092959850565b6000806040838503121561173c5761173b61132a565b5b600083013567ffffffffffffffff81111561175a5761175961132f565b5b6117668582860161143b565b925050602083013567ffffffffffffffff8111156117875761178661132f565b5b6117938582860161143b565b9150509250929050565b60006101408301600083015184820360008601526117bb82826110ca565b915050602083015184820360208601526117d582826110ca565b91505060408301516117ea604086018261110d565b506060830151848203606086015261180282826110ca565b9150506080830151848203608086015261181c82826110ca565b91505060a083015184820360a086015261183682826110ca565b91505060c083015184820360c086015261185082826110ca565b91505060e083015184820360e086015261186a82826110ca565b91505061010083015184820361010086015261188682826110ca565b91505061012083015161189d61012086018261114e565b508091505092915050565b600060208201905081810360008301526118c2818461179d565b905092915050565b60008115159050919050565b6118df816118ca565b82525050565b60006020820190506118fa60008301846118d6565b92915050565b7f4e487b7100000000000000000000000000000000000000000000000000000000600052602260045260246000fd5b6000600282049050600182168061194757607f821691505b60208210810361195a57611959611900565b5b50919050565b600081905092915050565b600061197682611073565b6119808185611960565b935061199081856020860161108f565b80840191505092915050565b60006119a8828461196b565b915081905092915050565b7f4e6f7420616c6c6f776564000000000000000000000000000000000000000000600082015250565b60006119e9600b836114b2565b91506119f4826119b3565b602082019050919050565b60006020820190508181036000830152611a18816119dc565b9050919050565b60008190508160005260206000209050919050565b60006020601f8301049050919050565b600082821b905092915050565b600060088302611a817fffffffffffffffffffffffffffffffffffffffffffffffffffffffffffffffff82611a44565b611a8b8683611a44565b95508019841693508086168417925050509392505050565b6000819050919050565b6000611ac8611ac3611abe84611103565b611aa3565b611103565b9050919050565b6000819050919050565b611ae283611aad565b611af6611aee82611acf565b848454611a51565b825550505050565b600090565b611b0b611afe565b611b16818484611ad9565b505050565b5b81811015611b3a57611b2f600082611b03565b600181019050611b1c565b5050565b601f821115611b7f57611b5081611a1f565b611b5984611a34565b81016020851015611b68578190505b611b7c611b7485611a34565b830182611b1b565b50505b505050565b600082821c905092915050565b6000611ba260001984600802611b84565b1980831691505092915050565b6000611bbb8383611b91565b9150826002028217905092915050565b611bd482611073565b67ffffffffffffffff811115611bed57611bec61133e565b5b611bf7825461192f565b611c02828285611b3e565b600060209050601f831160018114611c355760008415611c23578287015190505b611c2d8582611baf565b865550611c95565b601f198416611c4386611a1f565b60005b82811015611c6b57848901518255600182019150602085019450602081019050611c46565b86831015611c885784890151611c84601f891682611b91565b8355505b6001600288020188555050505b505050505050565b600081905092915050565b60008190508160005260206000209050919050565b60008154611cca8161192f565b611cd48186611c9d565b94506001821660008114611cef5760018114611d0457611d37565b60ff1983168652811515820286019350611d37565b611d0d85611ca8565b60005b83811015611d2f57815481890152600182019150602081019050611d10565b838801955050505b50505092915050565b6000611d4c8284611cbd565b915081905092915050565b7f4e487b7100000000000000000000000000000000000000000000000000000000600052603260045260246000fd5b7f4e487b7100000000000000000000000000000000000000000000000000000000600052601160045260246000fd5b6000611dc082611103565b91507fffffffffffffffffffffffffffffffffffffffffffffffffffffffffffffffff8203611df257611df1611d86565b5b600182019050919050565b7f55736572206e6f7420666f756e64206f722070617373776f726420697320696e60008201527f636f727265637400000000000000000000000000000000000000000000000000602082015250565b6000611e596027836114b2565b9150611e6482611dfd565b604082019050919050565b60006020820190508181036000830152611e8881611e4c565b905091905056fea2646970667358221220aebdb5312bdc7fc97da5d96d69e8c793a130d15e94e4e0e2cbd260ca7aa6051c64736f6c63430008110033",
  "linkReferences": {},
  "deployedLinkReferences": {}
}