{
  "_format": "hh-sol-artifact-1",
  "contractName": "ContestDeployer",
  "sourceName": "contracts/Voting.sol",
  "abi": [
    {
      "inputs": [],
      "stateMutability": "payable",
      "type": "constructor"
    },
    {
      "inputs": [
        {
          "internalType": "uint256",
          "name": "contestIdx",
          "type": "uint256"
        },
        {
          "internalType": "address",
          "name": "participant",
          "type": "address"
        }
      ],
      "name": "addParticipant",
      "outputs": [],
      "stateMutability": "nonpayable",
      "type": "function"
    },
    {
      "inputs": [
        {
          "internalType": "uint256",
          "name": "contestIdx",
          "type": "uint256"
        },
        {
          "internalType": "address",
          "name": "participant",
          "type": "address"
        }
      ],
      "name": "addRequestParticipant",
      "outputs": [],
      "stateMutability": "nonpayable",
      "type": "function"
    },
    {
      "inputs": [
        {
          "internalType": "address",
          "name": "newOwner",
          "type": "address"
        }
      ],
      "name": "addToOwners",
      "outputs": [],
      "stateMutability": "nonpayable",
      "type": "function"
    },
    {
      "inputs": [
        {
          "internalType": "uint256",
          "name": "",
          "type": "uint256"
        }
      ],
      "name": "contests",
      "outputs": [
        {
          "internalType": "string",
          "name": "title",
          "type": "string"
        },
        {
          "internalType": "uint256",
          "name": "totalVotes",
          "type": "uint256"
        },
        {
          "internalType": "bool",
          "name": "isContestStarted",
          "type": "bool"
        }
      ],
      "stateMutability": "view",
      "type": "function"
    },
    {
      "inputs": [
        {
          "internalType": "string",
          "name": "title",
          "type": "string"
        },
        {
          "internalType": "address[]",
          "name": "participants",
          "type": "address[]"
        }
      ],
      "name": "createContest",
      "outputs": [],
      "stateMutability": "payable",
      "type": "function"
    },
    {
      "inputs": [],
      "name": "getAllContests",
      "outputs": [
        {
          "components": [
            {
              "internalType": "string",
              "name": "title",
              "type": "string"
            },
            {
              "internalType": "address[]",
              "name": "participants",
              "type": "address[]"
            },
            {
              "internalType": "address[]",
              "name": "requestParticipants",
              "type": "address[]"
            },
            {
              "internalType": "address[]",
              "name": "voters",
              "type": "address[]"
            },
            {
              "internalType": "uint256",
              "name": "totalVotes",
              "type": "uint256"
            },
            {
              "internalType": "address[]",
              "name": "hasVoted",
              "type": "address[]"
            },
            {
              "internalType": "uint256[]",
              "name": "participantsVotes",
              "type": "uint256[]"
            },
            {
              "internalType": "bool",
              "name": "isContestStarted",
              "type": "bool"
            }
          ],
          "internalType": "struct ContestDeployer.Contest[]",
          "name": "",
          "type": "tuple[]"
        }
      ],
      "stateMutability": "view",
      "type": "function"
    },
    {
      "inputs": [],
      "name": "isOwner",
      "outputs": [
        {
          "internalType": "bool",
          "name": "",
          "type": "bool"
        }
      ],
      "stateMutability": "view",
      "type": "function"
    },
    {
      "inputs": [
        {
          "internalType": "uint256",
          "name": "",
          "type": "uint256"
        }
      ],
      "name": "owners",
      "outputs": [
        {
          "internalType": "address",
          "name": "",
          "type": "address"
        }
      ],
      "stateMutability": "view",
      "type": "function"
    },
    {
      "inputs": [
        {
          "internalType": "uint256",
          "name": "contestIdx",
          "type": "uint256"
        }
      ],
      "name": "startContest",
      "outputs": [],
      "stateMutability": "nonpayable",
      "type": "function"
    },
    {
      "inputs": [
        {
          "internalType": "uint256",
          "name": "contestIdx",
          "type": "uint256"
        },
        {
          "internalType": "address",
          "name": "participant",
          "type": "address"
        }
      ],
      "name": "vote",
      "outputs": [],
      "stateMutability": "nonpayable",
      "type": "function"
    }
  ],
  "bytecode": "0x60806040526001339080600181540180825580915050600190039060005260206000200160009091909190916101000a81548173ffffffffffffffffffffffffffffffffffffffff021916908373ffffffffffffffffffffffffffffffffffffffff160217905550612674806100766000396000f3fe6080604052600436106100915760003560e01c80636f8c4642116100595780636f8c4642146101795780637e8b356c146101955780638f32d59b146101be5780639d7ed738146101e9578063b383a7be1461022857610091565b8063025e7c271461009657806302d947ef146100d357806303cfb847146100fc57806318d85e53146101275780631ea59aa614610150575b600080fd5b3480156100a257600080fd5b506100bd60048036038101906100b891906116a4565b610251565b6040516100ca9190611712565b60405180910390f35b3480156100df57600080fd5b506100fa60048036038101906100f59190611759565b610290565b005b34801561010857600080fd5b5061011161062e565b60405161011e9190611b55565b60405180910390f35b34801561013357600080fd5b5061014e60048036038101906101499190611759565b6109d5565b005b34801561015c57600080fd5b50610177600480360381019061017291906116a4565b610b7f565b005b610193600480360381019061018e9190611d74565b610ce7565b005b3480156101a157600080fd5b506101bc60048036038101906101b79190611759565b61102b565b005b3480156101ca57600080fd5b506101d36111d5565b6040516101e09190611dfb565b60405180910390f35b3480156101f557600080fd5b50610210600480360381019061020b91906116a4565b611281565b60405161021f93929190611e6f565b60405180910390f35b34801561023457600080fd5b5061024f600480360381019061024a9190611ead565b611350565b005b6001818154811061026157600080fd5b906000526020600020016000915054906101000a900473ffffffffffffffffffffffffffffffffffffffff1681565b60008054905082106102d7576040517f08c379a00000000000000000000000000000000000000000000000000000000081526004016102ce90611f26565b60405180910390fd5b60008083815481106102ec576102eb611f46565b5b906000526020600020906008020190508060070160009054906101000a900460ff1661034d576040517f08c379a000000000000000000000000000000000000000000000000000000000815260040161034490611fc1565b60405180910390fd5b600033905060005b8260050180549050811015610425578173ffffffffffffffffffffffffffffffffffffffff1683600501828154811061039157610390611f46565b5b9060005260206000200160009054906101000a900473ffffffffffffffffffffffffffffffffffffffff1673ffffffffffffffffffffffffffffffffffffffff1603610412576040517f08c379a00000000000000000000000000000000000000000000000000000000081526004016104099061202d565b60405180910390fd5b808061041d9061207c565b915050610355565b506000805b83600101805490508110156105e65783600101818154811061044f5761044e611f46565b5b9060005260206000200160009054906101000a900473ffffffffffffffffffffffffffffffffffffffff1673ffffffffffffffffffffffffffffffffffffffff168573ffffffffffffffffffffffffffffffffffffffff16036105d3576001915060018460060182815481106104c8576104c7611f46565b5b9060005260206000200160008282546104e191906120c4565b9250508190555083600301839080600181540180825580915050600190039060005260206000200160009091909190916101000a81548173ffffffffffffffffffffffffffffffffffffffff021916908373ffffffffffffffffffffffffffffffffffffffff16021790555083600501839080600181540180825580915050600190039060005260206000200160009091909190916101000a81548173ffffffffffffffffffffffffffffffffffffffff021916908373ffffffffffffffffffffffffffffffffffffffff16021790555060018460040160008282546105c791906120c4565b925050819055506105e6565b80806105de9061207c565b91505061042a565b5080610627576040517f08c379a000000000000000000000000000000000000000000000000000000000815260040161061e9061216a565b60405180910390fd5b5050505050565b60606000805480602002602001604051908101604052809291908181526020016000905b828210156109cc578382906000526020600020906008020160405180610100016040529081600082018054610686906121b9565b80601f01602080910402602001604051908101604052809291908181526020018280546106b2906121b9565b80156106ff5780601f106106d4576101008083540402835291602001916106ff565b820191906000526020600020905b8154815290600101906020018083116106e257829003601f168201915b505050505081526020016001820180548060200260200160405190810160405280929190818152602001828054801561078d57602002820191906000526020600020905b8160009054906101000a900473ffffffffffffffffffffffffffffffffffffffff1673ffffffffffffffffffffffffffffffffffffffff1681526020019060010190808311610743575b505050505081526020016002820180548060200260200160405190810160405280929190818152602001828054801561081b57602002820191906000526020600020905b8160009054906101000a900473ffffffffffffffffffffffffffffffffffffffff1673ffffffffffffffffffffffffffffffffffffffff16815260200190600101908083116107d1575b50505050508152602001600382018054806020026020016040519081016040528092919081815260200182805480156108a957602002820191906000526020600020905b8160009054906101000a900473ffffffffffffffffffffffffffffffffffffffff1673ffffffffffffffffffffffffffffffffffffffff168152602001906001019080831161085f575b50505050508152602001600482015481526020016005820180548060200260200160405190810160405280929190818152602001828054801561094157602002820191906000526020600020905b8160009054906101000a900473ffffffffffffffffffffffffffffffffffffffff1673ffffffffffffffffffffffffffffffffffffffff16815260200190600101908083116108f7575b505050505081526020016006820180548060200260200160405190810160405280929190818152602001828054801561099957602002820191906000526020600020905b815481526020019060010190808311610985575b505050505081526020016007820160009054906101000a900460ff16151515158152505081526020019060010190610652565b50505050905090565b6000805490508210610a1c576040517f08c379a0000000000000000000000000000000000000000000000000000000008152600401610a1390611f26565b60405180910390fd5b6000808381548110610a3157610a30611f46565b5b9060005260206000209060080201905060005b8160010180549050811015610b14578273ffffffffffffffffffffffffffffffffffffffff16826001018281548110610a8057610a7f611f46565b5b9060005260206000200160009054906101000a900473ffffffffffffffffffffffffffffffffffffffff1673ffffffffffffffffffffffffffffffffffffffff1603610b01576040517f08c379a0000000000000000000000000000000000000000000000000000000008152600401610af890612236565b60405180910390fd5b8080610b0c9061207c565b915050610a44565b5080600101829080600181540180825580915050600190039060005260206000200160009091909190916101000a81548173ffffffffffffffffffffffffffffffffffffffff021916908373ffffffffffffffffffffffffffffffffffffffff160217905550505050565b6000805b600180549050811015610c1d573373ffffffffffffffffffffffffffffffffffffffff1660018281548110610bbb57610bba611f46565b5b9060005260206000200160009054906101000a900473ffffffffffffffffffffffffffffffffffffffff1673ffffffffffffffffffffffffffffffffffffffff1603610c0a5760019150610c1d565b8080610c159061207c565b915050610b83565b5080610c5e576040517f08c379a0000000000000000000000000000000000000000000000000000000008152600401610c55906122c8565b60405180910390fd5b6000805490508210610ca5576040517f08c379a0000000000000000000000000000000000000000000000000000000008152600401610c9c90611f26565b60405180910390fd5b600160008381548110610cbb57610cba611f46565b5b906000526020600020906008020160070160006101000a81548160ff0219169083151502179055505050565b6000805b600180549050811015610d85573373ffffffffffffffffffffffffffffffffffffffff1660018281548110610d2357610d22611f46565b5b9060005260206000200160009054906101000a900473ffffffffffffffffffffffffffffffffffffffff1673ffffffffffffffffffffffffffffffffffffffff1603610d725760019150610d85565b8080610d7d9061207c565b915050610ceb565b5080610dc6576040517f08c379a0000000000000000000000000000000000000000000000000000000008152600401610dbd906122c8565b60405180910390fd5b6000604051806101000160405280858152602001848152602001600067ffffffffffffffff811115610dfb57610dfa611b81565b5b604051908082528060200260200182016040528015610e295781602001602082028036833780820191505090505b508152602001600067ffffffffffffffff811115610e4a57610e49611b81565b5b604051908082528060200260200182016040528015610e785781602001602082028036833780820191505090505b50815260200160008152602001600067ffffffffffffffff811115610ea057610e9f611b81565b5b604051908082528060200260200182016040528015610ece5781602001602082028036833780820191505090505b508152602001845167ffffffffffffffff811115610eef57610eee611b81565b5b604051908082528060200260200182016040528015610f1d5781602001602082028036833780820191505090505b5081526020016000151581525090806001815401808255809150506001900390600052602060002090600802016000909190919091506000820151816000019081610f689190612494565b506020820151816001019080519060200190610f85929190611566565b506040820151816002019080519060200190610fa2929190611566565b506060820151816003019080519060200190610fbf929190611566565b506080820151816004015560a0820151816005019080519060200190610fe6929190611566565b5060c08201518160060190805190602001906110039291906115f0565b5060e08201518160070160006101000a81548160ff0219169083151502179055505050505050565b6000805490508210611072576040517f08c379a000000000000000000000000000000000000000000000000000000000815260040161106990611f26565b60405180910390fd5b600080838154811061108757611086611f46565b5b9060005260206000209060080201905060005b816002018054905081101561116a578273ffffffffffffffffffffffffffffffffffffffff168260020182815481106110d6576110d5611f46565b5b9060005260206000200160009054906101000a900473ffffffffffffffffffffffffffffffffffffffff1673ffffffffffffffffffffffffffffffffffffffff1603611157576040517f08c379a000000000000000000000000000000000000000000000000000000000815260040161114e906125b2565b60405180910390fd5b80806111629061207c565b91505061109a565b5080600201829080600181540180825580915050600190039060005260206000200160009091909190916101000a81548173ffffffffffffffffffffffffffffffffffffffff021916908373ffffffffffffffffffffffffffffffffffffffff160217905550505050565b6000806000905060005b600180549050811015611279573373ffffffffffffffffffffffffffffffffffffffff166001828154811061121757611216611f46565b5b9060005260206000200160009054906101000a900473ffffffffffffffffffffffffffffffffffffffff1673ffffffffffffffffffffffffffffffffffffffff16036112665760019150611279565b80806112719061207c565b9150506111df565b508091505090565b6000818154811061129157600080fd5b90600052602060002090600802016000915090508060000180546112b4906121b9565b80601f01602080910402602001604051908101604052809291908181526020018280546112e0906121b9565b801561132d5780601f106113025761010080835404028352916020019161132d565b820191906000526020600020905b81548152906001019060200180831161131057829003601f168201915b5050505050908060040154908060070160009054906101000a900460ff16905083565b6000805b6001805490508110156113ee573373ffffffffffffffffffffffffffffffffffffffff166001828154811061138c5761138b611f46565b5b9060005260206000200160009054906101000a900473ffffffffffffffffffffffffffffffffffffffff1673ffffffffffffffffffffffffffffffffffffffff16036113db57600191506113ee565b80806113e69061207c565b915050611354565b508061142f576040517f08c379a0000000000000000000000000000000000000000000000000000000008152600401611426906122c8565b60405180910390fd5b60005b6001805490508110156114fe578273ffffffffffffffffffffffffffffffffffffffff166001828154811061146a57611469611f46565b5b9060005260206000200160009054906101000a900473ffffffffffffffffffffffffffffffffffffffff1673ffffffffffffffffffffffffffffffffffffffff16036114eb576040517f08c379a00000000000000000000000000000000000000000000000000000000081526004016114e29061261e565b60405180910390fd5b80806114f69061207c565b915050611432565b506001829080600181540180825580915050600190039060005260206000200160009091909190916101000a81548173ffffffffffffffffffffffffffffffffffffffff021916908373ffffffffffffffffffffffffffffffffffffffff1602179055505050565b8280548282559060005260206000209081019282156115df579160200282015b828111156115de5782518260006101000a81548173ffffffffffffffffffffffffffffffffffffffff021916908373ffffffffffffffffffffffffffffffffffffffff16021790555091602001919060010190611586565b5b5090506115ec919061163d565b5090565b82805482825590600052602060002090810192821561162c579160200282015b8281111561162b578251825591602001919060010190611610565b5b509050611639919061163d565b5090565b5b8082111561165657600081600090555060010161163e565b5090565b6000604051905090565b600080fd5b600080fd5b6000819050919050565b6116818161166e565b811461168c57600080fd5b50565b60008135905061169e81611678565b92915050565b6000602082840312156116ba576116b9611664565b5b60006116c88482850161168f565b91505092915050565b600073ffffffffffffffffffffffffffffffffffffffff82169050919050565b60006116fc826116d1565b9050919050565b61170c816116f1565b82525050565b60006020820190506117276000830184611703565b92915050565b611736816116f1565b811461174157600080fd5b50565b6000813590506117538161172d565b92915050565b600080604083850312156117705761176f611664565b5b600061177e8582860161168f565b925050602061178f85828601611744565b9150509250929050565b600081519050919050565b600082825260208201905092915050565b6000819050602082019050919050565b600081519050919050565b600082825260208201905092915050565b60005b838110156117ff5780820151818401526020810190506117e4565b60008484015250505050565b6000601f19601f8301169050919050565b6000611827826117c5565b61183181856117d0565b93506118418185602086016117e1565b61184a8161180b565b840191505092915050565b600081519050919050565b600082825260208201905092915050565b6000819050602082019050919050565b61188a816116f1565b82525050565b600061189c8383611881565b60208301905092915050565b6000602082019050919050565b60006118c082611855565b6118ca8185611860565b93506118d583611871565b8060005b838110156119065781516118ed8882611890565b97506118f8836118a8565b9250506001810190506118d9565b5085935050505092915050565b61191c8161166e565b82525050565b600081519050919050565b600082825260208201905092915050565b6000819050602082019050919050565b600061195a8383611913565b60208301905092915050565b6000602082019050919050565b600061197e82611922565b611988818561192d565b93506119938361193e565b8060005b838110156119c45781516119ab888261194e565b97506119b683611966565b925050600181019050611997565b5085935050505092915050565b60008115159050919050565b6119e6816119d1565b82525050565b6000610100830160008301518482036000860152611a0a828261181c565b91505060208301518482036020860152611a2482826118b5565b91505060408301518482036040860152611a3e82826118b5565b91505060608301518482036060860152611a5882826118b5565b9150506080830151611a6d6080860182611913565b5060a083015184820360a0860152611a8582826118b5565b91505060c083015184820360c0860152611a9f8282611973565b91505060e0830151611ab460e08601826119dd565b508091505092915050565b6000611acb83836119ec565b905092915050565b6000602082019050919050565b6000611aeb82611799565b611af581856117a4565b935083602082028501611b07856117b5565b8060005b85811015611b435784840389528151611b248582611abf565b9450611b2f83611ad3565b925060208a01995050600181019050611b0b565b50829750879550505050505092915050565b60006020820190508181036000830152611b6f8184611ae0565b905092915050565b600080fd5b600080fd5b7f4e487b7100000000000000000000000000000000000000000000000000000000600052604160045260246000fd5b611bb98261180b565b810181811067ffffffffffffffff82111715611bd857611bd7611b81565b5b80604052505050565b6000611beb61165a565b9050611bf78282611bb0565b919050565b600067ffffffffffffffff821115611c1757611c16611b81565b5b611c208261180b565b9050602081019050919050565b82818337600083830152505050565b6000611c4f611c4a84611bfc565b611be1565b905082815260208101848484011115611c6b57611c6a611b7c565b5b611c76848285611c2d565b509392505050565b600082601f830112611c9357611c92611b77565b5b8135611ca3848260208601611c3c565b91505092915050565b600067ffffffffffffffff821115611cc757611cc6611b81565b5b602082029050602081019050919050565b600080fd5b6000611cf0611ceb84611cac565b611be1565b90508083825260208201905060208402830185811115611d1357611d12611cd8565b5b835b81811015611d3c5780611d288882611744565b845260208401935050602081019050611d15565b5050509392505050565b600082601f830112611d5b57611d5a611b77565b5b8135611d6b848260208601611cdd565b91505092915050565b60008060408385031215611d8b57611d8a611664565b5b600083013567ffffffffffffffff811115611da957611da8611669565b5b611db585828601611c7e565b925050602083013567ffffffffffffffff811115611dd657611dd5611669565b5b611de285828601611d46565b9150509250929050565b611df5816119d1565b82525050565b6000602082019050611e106000830184611dec565b92915050565b600082825260208201905092915050565b6000611e32826117c5565b611e3c8185611e16565b9350611e4c8185602086016117e1565b611e558161180b565b840191505092915050565b611e698161166e565b82525050565b60006060820190508181036000830152611e898186611e27565b9050611e986020830185611e60565b611ea56040830184611dec565b949350505050565b600060208284031215611ec357611ec2611664565b5b6000611ed184828501611744565b91505092915050565b7f496e76616c696420636f6e7465737420696e6465780000000000000000000000600082015250565b6000611f10601583611e16565b9150611f1b82611eda565b602082019050919050565b60006020820190508181036000830152611f3f81611f03565b9050919050565b7f4e487b7100000000000000000000000000000000000000000000000000000000600052603260045260246000fd5b7f436f6e74657374206e6f74207374617274656420796574212121000000000000600082015250565b6000611fab601a83611e16565b9150611fb682611f75565b602082019050919050565b60006020820190508181036000830152611fda81611f9e565b9050919050565b7f596f75206861766520616c726561647920766f74656400000000000000000000600082015250565b6000612017601683611e16565b915061202282611fe1565b602082019050919050565b600060208201905081810360008301526120468161200a565b9050919050565b7f4e487b7100000000000000000000000000000000000000000000000000000000600052601160045260246000fd5b60006120878261166e565b91507fffffffffffffffffffffffffffffffffffffffffffffffffffffffffffffffff82036120b9576120b861204d565b5b600182019050919050565b60006120cf8261166e565b91506120da8361166e565b92508282019050808211156120f2576120f161204d565b5b92915050565b7f5061727469636970616e7420646f6573206e6f7420657869737420696e20746860008201527f697320636f6e7465737400000000000000000000000000000000000000000000602082015250565b6000612154602a83611e16565b915061215f826120f8565b604082019050919050565b6000602082019050818103600083015261218381612147565b9050919050565b7f4e487b7100000000000000000000000000000000000000000000000000000000600052602260045260246000fd5b600060028204905060018216806121d157607f821691505b6020821081036121e4576121e361218a565b5b50919050565b7f616c72656164792070726573656e740000000000000000000000000000000000600082015250565b6000612220600f83611e16565b915061222b826121ea565b602082019050919050565b6000602082019050818103600083015261224f81612213565b9050919050565b7f596f7520617265206e6f7420616c6c6f77656420746f20706572666f726d207460008201527f68697320616374696f6e00000000000000000000000000000000000000000000602082015250565b60006122b2602a83611e16565b91506122bd82612256565b604082019050919050565b600060208201905081810360008301526122e1816122a5565b9050919050565b60008190508160005260206000209050919050565b60006020601f8301049050919050565b600082821b905092915050565b60006008830261234a7fffffffffffffffffffffffffffffffffffffffffffffffffffffffffffffffff8261230d565b612354868361230d565b95508019841693508086168417925050509392505050565b6000819050919050565b600061239161238c6123878461166e565b61236c565b61166e565b9050919050565b6000819050919050565b6123ab83612376565b6123bf6123b782612398565b84845461231a565b825550505050565b600090565b6123d46123c7565b6123df8184846123a2565b505050565b5b81811015612403576123f86000826123cc565b6001810190506123e5565b5050565b601f82111561244857612419816122e8565b612422846122fd565b81016020851015612431578190505b61244561243d856122fd565b8301826123e4565b50505b505050565b600082821c905092915050565b600061246b6000198460080261244d565b1980831691505092915050565b6000612484838361245a565b9150826002028217905092915050565b61249d826117c5565b67ffffffffffffffff8111156124b6576124b5611b81565b5b6124c082546121b9565b6124cb828285612407565b600060209050601f8311600181146124fe57600084156124ec578287015190505b6124f68582612478565b86555061255e565b601f19841661250c866122e8565b60005b828110156125345784890151825560018201915060208501945060208101905061250f565b86831015612551578489015161254d601f89168261245a565b8355505b6001600288020188555050505b505050505050565b7f616c72656164792070726573656e742072657175657374000000000000000000600082015250565b600061259c601783611e16565b91506125a782612566565b602082019050919050565b600060208201905081810360008301526125cb8161258f565b9050919050565b7f4f776e657220616c726561647920657869737473000000000000000000000000600082015250565b6000612608601483611e16565b9150612613826125d2565b602082019050919050565b60006020820190508181036000830152612637816125fb565b905091905056fea2646970667358221220fea1122e359e6de71806829fe57f7f172f0c9e80260800d447ab2f462648eee664736f6c63430008110033",
  "linkReferences": {},
  "deployedLinkReferences": {}
}